{
  "fileName": "ETHSlotMachine.sol",
  "contractName": "ETHSlotMachine",
  "source": "pragma solidity ^0.5.16;\npragma experimental ABIEncoderV2;\n\nimport \"@openzeppelin/upgrades/contracts/Initializable.sol\";\nimport \"@openzeppelin/contracts-ethereum-package/contracts/utils/Address.sol\";\nimport \"@openzeppelin/contracts-ethereum-package/contracts/math/SafeMath.sol\";\nimport \"@openzeppelin/contracts-ethereum-package/contracts/ownership/Ownable.sol\";\n\n\ncontract ETHSlotMachine is Initializable, Ownable {\n  using SafeMath for uint256;\n  using Address for address payable;\n  uint256 public pot;\n  uint256 public price;\n  uint256 public jackpot_number;\n  uint256 private _ran_num;\n  uint256 private _seed;\n  uint256 public total;\n  uint256 public win;\n  address payable collecter;\n\n  event Response(\n    address indexed _player,\n    string _msg,\n    uint256 _prizeId,\n    uint256 _value\n  );\n  event SetPrice(uint256 _newPrice);\n\n  modifier costs(uint256 _price) {\n    require(msg.value >= _price);\n    _;\n  }\n\n  function initialize(uint256 seed, uint256 jackpot)\n    public\n    payable\n    initializer\n  {\n    require(msg.value > 0);\n    Ownable.initialize(msg.sender);\n    collecter = msg.sender;\n    price = msg.value;\n    jackpot_number = jackpot;\n    _seed = seed;\n    pot = pot.add(msg.value);\n  }\n\n  function() external payable {\n    uint256 fee = (msg.value).div(50);\n    uint256 pot_val = (msg.value).sub(fee);\n    collecter.sendValue(fee);\n    pot = pot.add(pot_val);\n    emit Response(msg.sender, \"Deposit\", 100, pot_val);\n  }\n\n  function getLucky() external payable costs(price) {\n    require(pot > 0, \"No money in pot\");\n    uint256 ran = _random();\n    uint256 amount = pot;\n    total = total.add(1);\n    if (ran == jackpot_number) {\n      //send 100% pot value\n      pot = 0;\n      (msg.sender).sendValue(amount);\n      msg.sender.transfer(msg.value);\n      win = win.add(1);\n      emit Response(msg.sender, \"Won First Prize\", 0, amount);\n      return;\n    } else if (ran.mod(20) == 0) {\n      //send 20%\n      amount = amount.div(5);\n      pot = pot.sub(amount);\n      (msg.sender).sendValue(amount);\n      msg.sender.transfer(msg.value);\n      win = win.add(1);\n      emit Response(msg.sender, \"Won Second Prize\", 1, amount);\n      return;\n    } else if (ran.mod(10) == 0) {\n      //send 10%\n      amount = amount.div(10);\n      pot = pot.sub(amount);\n      (msg.sender).sendValue(amount);\n      msg.sender.transfer(msg.value);\n      win = win.add(1);\n      emit Response(msg.sender, \"Won Third Prize\", 2, amount);\n      return;\n    } else if (ran.mod(4) == 0) {\n      //send 4%\n      amount = amount.div(25);\n      pot = pot.sub(amount);\n      (msg.sender).sendValue(amount);\n      msg.sender.transfer(msg.value);\n      win = win.add(1);\n      emit Response(msg.sender, \"Won Forth Prize\", 3, amount);\n      return;\n    } else if (ran.mod(2) == 0) {\n      //send 2%\n      amount = amount.div(50);\n      pot = pot.sub(amount);\n      (msg.sender).sendValue(amount);\n      msg.sender.transfer(msg.value);\n      win = win.add(1);\n      emit Response(msg.sender, \"Won Fifth Prize\", 4, amount);\n      return;\n    } else {\n      uint256 fee = (msg.value).div(50);\n      uint256 pot_val = (msg.value).sub(fee);\n      collecter.sendValue(fee);\n      pot = pot.add(pot_val);\n      emit Response(msg.sender, \"Lose\", 5, pot_val);\n    }\n  }\n\n  /* \n     Generates a random number from 0 to 100 based on the last block hash \n     unsafe, a miner can influence the number by not publishing a block with an \n     unwanted outcome, and forfeiting the 5 block reward.\n  */\n  function _random() private returns (uint256 randomNumber) {\n    return (uint256(\n      keccak256(abi.encodePacked(blockhash(block.number - 1), _seed))\n    ) % 100);\n  }\n\n  function updatePrice(uint256 newPrice) public onlyOwner {\n    require(newPrice > 0);\n    price = newPrice;\n    emit SetPrice(newPrice);\n  }\n\n  function updateSeed(uint256 seed) public onlyOwner {\n    _seed = seed;\n  }\n\n  function updateJackpotNumber(uint256 num) public onlyOwner {\n    jackpot_number = num;\n  }\n}\n",
  "sourcePath": "contracts/ETHSlotMachine.sol",
  "abi": [
    {
      "anonymous": false,
      "inputs": [
        {
          "indexed": true,
          "internalType": "address",
          "name": "previousOwner",
          "type": "address"
        },
        {
          "indexed": true,
          "internalType": "address",
          "name": "newOwner",
          "type": "address"
        }
      ],
      "name": "OwnershipTransferred",
      "type": "event"
    },
    {
      "anonymous": false,
      "inputs": [
        {
          "indexed": true,
          "internalType": "address",
          "name": "_player",
          "type": "address"
        },
        {
          "indexed": false,
          "internalType": "string",
          "name": "_msg",
          "type": "string"
        },
        {
          "indexed": false,
          "internalType": "uint256",
          "name": "_prizeId",
          "type": "uint256"
        },
        {
          "indexed": false,
          "internalType": "uint256",
          "name": "_value",
          "type": "uint256"
        }
      ],
      "name": "Response",
      "type": "event"
    },
    {
      "anonymous": false,
      "inputs": [
        {
          "indexed": false,
          "internalType": "uint256",
          "name": "_newPrice",
          "type": "uint256"
        }
      ],
      "name": "SetPrice",
      "type": "event"
    },
    {
      "payable": true,
      "stateMutability": "payable",
      "type": "fallback"
    },
    {
      "constant": false,
      "inputs": [],
      "name": "getLucky",
      "outputs": [],
      "payable": true,
      "stateMutability": "payable",
      "type": "function"
    },
    {
      "constant": false,
      "inputs": [
        {
          "internalType": "address",
          "name": "sender",
          "type": "address"
        }
      ],
      "name": "initialize",
      "outputs": [],
      "payable": false,
      "stateMutability": "nonpayable",
      "type": "function"
    },
    {
      "constant": false,
      "inputs": [
        {
          "internalType": "uint256",
          "name": "seed",
          "type": "uint256"
        },
        {
          "internalType": "uint256",
          "name": "jackpot",
          "type": "uint256"
        }
      ],
      "name": "initialize",
      "outputs": [],
      "payable": true,
      "stateMutability": "payable",
      "type": "function"
    },
    {
      "constant": true,
      "inputs": [],
      "name": "isOwner",
      "outputs": [
        {
          "internalType": "bool",
          "name": "",
          "type": "bool"
        }
      ],
      "payable": false,
      "stateMutability": "view",
      "type": "function"
    },
    {
      "constant": true,
      "inputs": [],
      "name": "jackpot_number",
      "outputs": [
        {
          "internalType": "uint256",
          "name": "",
          "type": "uint256"
        }
      ],
      "payable": false,
      "stateMutability": "view",
      "type": "function"
    },
    {
      "constant": true,
      "inputs": [],
      "name": "owner",
      "outputs": [
        {
          "internalType": "address",
          "name": "",
          "type": "address"
        }
      ],
      "payable": false,
      "stateMutability": "view",
      "type": "function"
    },
    {
      "constant": true,
      "inputs": [],
      "name": "pot",
      "outputs": [
        {
          "internalType": "uint256",
          "name": "",
          "type": "uint256"
        }
      ],
      "payable": false,
      "stateMutability": "view",
      "type": "function"
    },
    {
      "constant": true,
      "inputs": [],
      "name": "price",
      "outputs": [
        {
          "internalType": "uint256",
          "name": "",
          "type": "uint256"
        }
      ],
      "payable": false,
      "stateMutability": "view",
      "type": "function"
    },
    {
      "constant": false,
      "inputs": [],
      "name": "renounceOwnership",
      "outputs": [],
      "payable": false,
      "stateMutability": "nonpayable",
      "type": "function"
    },
    {
      "constant": true,
      "inputs": [],
      "name": "total",
      "outputs": [
        {
          "internalType": "uint256",
          "name": "",
          "type": "uint256"
        }
      ],
      "payable": false,
      "stateMutability": "view",
      "type": "function"
    },
    {
      "constant": false,
      "inputs": [
        {
          "internalType": "address",
          "name": "newOwner",
          "type": "address"
        }
      ],
      "name": "transferOwnership",
      "outputs": [],
      "payable": false,
      "stateMutability": "nonpayable",
      "type": "function"
    },
    {
      "constant": false,
      "inputs": [
        {
          "internalType": "uint256",
          "name": "num",
          "type": "uint256"
        }
      ],
      "name": "updateJackpotNumber",
      "outputs": [],
      "payable": false,
      "stateMutability": "nonpayable",
      "type": "function"
    },
    {
      "constant": false,
      "inputs": [
        {
          "internalType": "uint256",
          "name": "newPrice",
          "type": "uint256"
        }
      ],
      "name": "updatePrice",
      "outputs": [],
      "payable": false,
      "stateMutability": "nonpayable",
      "type": "function"
    },
    {
      "constant": false,
      "inputs": [
        {
          "internalType": "uint256",
          "name": "seed",
          "type": "uint256"
        }
      ],
      "name": "updateSeed",
      "outputs": [],
      "payable": false,
      "stateMutability": "nonpayable",
      "type": "function"
    },
    {
      "constant": true,
      "inputs": [],
      "name": "win",
      "outputs": [
        {
          "internalType": "uint256",
          "name": "",
          "type": "uint256"
        }
      ],
      "payable": false,
      "stateMutability": "view",
      "type": "function"
    }
  ],
  "bytecode": "0x6080604052612129806100136000396000f3fe6080604052600436106100e85760003560e01c80638f32d59b1161008a578063c4d66de811610059578063c4d66de814610391578063e4a30116146103ba578063f2fde38b146103d6578063f43706a8146103ff576100e8565b80638f32d59b146102e9578063a035b1fe14610314578063b0d5a3101461033f578063b3f8c65c14610368576100e8565b80634ba2363a116100c65780634ba2363a14610253578063715018a61461027e5780638d6cc56d146102955780638da5cb5b146102be576100e8565b806319c92494146101d25780632ddbd13a146101fd578063473ca96c14610228575b60006100fe60323461040990919063ffffffff16565b90506000610115823461045390919063ffffffff16565b905061016282606d60009054906101000a900473ffffffffffffffffffffffffffffffffffffffff1673ffffffffffffffffffffffffffffffffffffffff1661049d90919063ffffffff16565b610177816066546105a890919063ffffffff16565b6066819055503373ffffffffffffffffffffffffffffffffffffffff167f271faf1883a76d4db0e8021bfb29cfa906ad2251bc6c48857b6647de74da87006064836040516101c6929190611e9a565b60405180910390a25050005b3480156101de57600080fd5b506101e76105fd565b6040516101f49190611f4e565b60405180910390f35b34801561020957600080fd5b50610212610603565b60405161021f9190611f4e565b60405180910390f35b34801561023457600080fd5b5061023d610609565b60405161024a9190611f4e565b60405180910390f35b34801561025f57600080fd5b5061026861060f565b6040516102759190611f4e565b60405180910390f35b34801561028a57600080fd5b50610293610615565b005b3480156102a157600080fd5b506102bc60048036036102b791908101906116c3565b61071d565b005b3480156102ca57600080fd5b506102d36107b2565b6040516102e09190611c72565b60405180910390f35b3480156102f557600080fd5b506102fe6107dc565b60405161030b9190611c8d565b60405180910390f35b34801561032057600080fd5b5061032961083b565b6040516103369190611f4e565b60405180910390f35b34801561034b57600080fd5b50610366600480360361036191908101906116c3565b610841565b005b34801561037457600080fd5b5061038f600480360361038a91908101906116c3565b610892565b005b34801561039d57600080fd5b506103b860048036036103b3919081019061169a565b6108e3565b005b6103d460048036036103cf91908101906116ec565b610a8b565b005b3480156103e257600080fd5b506103fd60048036036103f8919081019061169a565b610bfd565b005b610407610c50565b005b600061044b83836040518060400160405280601a81526020017f536166654d6174683a206469766973696f6e206279207a65726f00000000000081525061137c565b905092915050565b600061049583836040518060400160405280601e81526020017f536166654d6174683a207375627472616374696f6e206f766572666c6f7700008152506113dd565b905092915050565b803073ffffffffffffffffffffffffffffffffffffffff163110156104f7576040517f08c379a00000000000000000000000000000000000000000000000000000000081526004016104ee90611da2565b60405180910390fd5b60008273ffffffffffffffffffffffffffffffffffffffff168260405161051d90611c5d565b60006040518083038185875af1925050503d806000811461055a576040519150601f19603f3d011682016040523d82523d6000602084013e61055f565b606091505b50509050806105a3576040517f08c379a000000000000000000000000000000000000000000000000000000000815260040161059a90611d82565b60405180910390fd5b505050565b6000808284019050838110156105f3576040517f08c379a00000000000000000000000000000000000000000000000000000000081526004016105ea90611d26565b60405180910390fd5b8091505092915050565b60685481565b606b5481565b606c5481565b60665481565b61061d6107dc565b61065c576040517f08c379a000000000000000000000000000000000000000000000000000000000815260040161065390611e5a565b60405180910390fd5b600073ffffffffffffffffffffffffffffffffffffffff16603360009054906101000a900473ffffffffffffffffffffffffffffffffffffffff1673ffffffffffffffffffffffffffffffffffffffff167f8be0079c531659141344cd1fd0a4f28419497f9722a3daafe3b4186f6b6457e060405160405180910390a36000603360006101000a81548173ffffffffffffffffffffffffffffffffffffffff021916908373ffffffffffffffffffffffffffffffffffffffff160217905550565b6107256107dc565b610764576040517f08c379a000000000000000000000000000000000000000000000000000000000815260040161075b90611e5a565b60405180910390fd5b6000811161077157600080fd5b806067819055507f4f5539c0409dfc4cb06f64cbd31237e1fbfe443f531584bf4dd77ec7fc5ba7b1816040516107a79190611f4e565b60405180910390a150565b6000603360009054906101000a900473ffffffffffffffffffffffffffffffffffffffff16905090565b6000603360009054906101000a900473ffffffffffffffffffffffffffffffffffffffff1673ffffffffffffffffffffffffffffffffffffffff1661081f611438565b73ffffffffffffffffffffffffffffffffffffffff1614905090565b60675481565b6108496107dc565b610888576040517f08c379a000000000000000000000000000000000000000000000000000000000815260040161087f90611e5a565b60405180910390fd5b8060688190555050565b61089a6107dc565b6108d9576040517f08c379a00000000000000000000000000000000000000000000000000000000081526004016108d090611e5a565b60405180910390fd5b80606a8190555050565b600060019054906101000a900460ff16806109025750610901611440565b5b8061091957506000809054906101000a900460ff16155b610958576040517f08c379a000000000000000000000000000000000000000000000000000000000815260040161094f90611e7a565b60405180910390fd5b60008060019054906101000a900460ff1615905080156109a8576001600060016101000a81548160ff02191690831515021790555060016000806101000a81548160ff0219169083151502179055505b81603360006101000a81548173ffffffffffffffffffffffffffffffffffffffff021916908373ffffffffffffffffffffffffffffffffffffffff160217905550603360009054906101000a900473ffffffffffffffffffffffffffffffffffffffff1673ffffffffffffffffffffffffffffffffffffffff16600073ffffffffffffffffffffffffffffffffffffffff167f8be0079c531659141344cd1fd0a4f28419497f9722a3daafe3b4186f6b6457e060405160405180910390a38015610a875760008060016101000a81548160ff0219169083151502179055505b5050565b600060019054906101000a900460ff1680610aaa5750610aa9611440565b5b80610ac157506000809054906101000a900460ff16155b610b00576040517f08c379a0000000000000000000000000000000000000000000000000000000008152600401610af790611e7a565b60405180910390fd5b60008060019054906101000a900460ff161590508015610b50576001600060016101000a81548160ff02191690831515021790555060016000806101000a81548160ff0219169083151502179055505b60003411610b5d57600080fd5b610b66336108e3565b33606d60006101000a81548173ffffffffffffffffffffffffffffffffffffffff021916908373ffffffffffffffffffffffffffffffffffffffff160217905550346067819055508160688190555082606a81905550610bd1346066546105a890919063ffffffff16565b6066819055508015610bf85760008060016101000a81548160ff0219169083151502179055505b505050565b610c056107dc565b610c44576040517f08c379a0000000000000000000000000000000000000000000000000000000008152600401610c3b90611e5a565b60405180910390fd5b610c4d81611457565b50565b60675480341015610c6057600080fd5b600060665411610ca5576040517f08c379a0000000000000000000000000000000000000000000000000000000008152600401610c9c90611e3a565b60405180910390fd5b6000610caf611587565b905060006066549050610cce6001606b546105a890919063ffffffff16565b606b81905550606854821415610dca576000606681905550610d0f813373ffffffffffffffffffffffffffffffffffffffff1661049d90919063ffffffff16565b3373ffffffffffffffffffffffffffffffffffffffff166108fc349081150290604051600060405180830381858888f19350505050158015610d55573d6000803e3d6000fd5b50610d6c6001606c546105a890919063ffffffff16565b606c819055503373ffffffffffffffffffffffffffffffffffffffff167f271faf1883a76d4db0e8021bfb29cfa906ad2251bc6c48857b6647de74da8700600083604051610dbb929190611cca565b60405180910390a25050611379565b6000610de06014846115ca90919063ffffffff16565b1415610efb57610dfa60058261040990919063ffffffff16565b9050610e118160665461045390919063ffffffff16565b606681905550610e40813373ffffffffffffffffffffffffffffffffffffffff1661049d90919063ffffffff16565b3373ffffffffffffffffffffffffffffffffffffffff166108fc349081150290604051600060405180830381858888f19350505050158015610e86573d6000803e3d6000fd5b50610e9d6001606c546105a890919063ffffffff16565b606c819055503373ffffffffffffffffffffffffffffffffffffffff167f271faf1883a76d4db0e8021bfb29cfa906ad2251bc6c48857b6647de74da8700600183604051610eec929190611dc2565b60405180910390a25050611379565b6000610f11600a846115ca90919063ffffffff16565b141561102c57610f2b600a8261040990919063ffffffff16565b9050610f428160665461045390919063ffffffff16565b606681905550610f71813373ffffffffffffffffffffffffffffffffffffffff1661049d90919063ffffffff16565b3373ffffffffffffffffffffffffffffffffffffffff166108fc349081150290604051600060405180830381858888f19350505050158015610fb7573d6000803e3d6000fd5b50610fce6001606c546105a890919063ffffffff16565b606c819055503373ffffffffffffffffffffffffffffffffffffffff167f271faf1883a76d4db0e8021bfb29cfa906ad2251bc6c48857b6647de74da870060028360405161101d929190611dfe565b60405180910390a25050611379565b60006110426004846115ca90919063ffffffff16565b141561115d5761105c60198261040990919063ffffffff16565b90506110738160665461045390919063ffffffff16565b6066819055506110a2813373ffffffffffffffffffffffffffffffffffffffff1661049d90919063ffffffff16565b3373ffffffffffffffffffffffffffffffffffffffff166108fc349081150290604051600060405180830381858888f193505050501580156110e8573d6000803e3d6000fd5b506110ff6001606c546105a890919063ffffffff16565b606c819055503373ffffffffffffffffffffffffffffffffffffffff167f271faf1883a76d4db0e8021bfb29cfa906ad2251bc6c48857b6647de74da870060038360405161114e929190611ed6565b60405180910390a25050611379565b60006111736002846115ca90919063ffffffff16565b141561128e5761118d60328261040990919063ffffffff16565b90506111a48160665461045390919063ffffffff16565b6066819055506111d3813373ffffffffffffffffffffffffffffffffffffffff1661049d90919063ffffffff16565b3373ffffffffffffffffffffffffffffffffffffffff166108fc349081150290604051600060405180830381858888f19350505050158015611219573d6000803e3d6000fd5b506112306001606c546105a890919063ffffffff16565b606c819055503373ffffffffffffffffffffffffffffffffffffffff167f271faf1883a76d4db0e8021bfb29cfa906ad2251bc6c48857b6647de74da870060048360405161127f929190611d46565b60405180910390a25050611379565b60006112a460323461040990919063ffffffff16565b905060006112bb823461045390919063ffffffff16565b905061130882606d60009054906101000a900473ffffffffffffffffffffffffffffffffffffffff1673ffffffffffffffffffffffffffffffffffffffff1661049d90919063ffffffff16565b61131d816066546105a890919063ffffffff16565b6066819055503373ffffffffffffffffffffffffffffffffffffffff167f271faf1883a76d4db0e8021bfb29cfa906ad2251bc6c48857b6647de74da870060058360405161136c929190611f12565b60405180910390a2505050505b50565b600080831182906113c3576040517f08c379a00000000000000000000000000000000000000000000000000000000081526004016113ba9190611ca8565b60405180910390fd5b5060008385816113cf57fe5b049050809150509392505050565b6000838311158290611425576040517f08c379a000000000000000000000000000000000000000000000000000000000815260040161141c9190611ca8565b60405180910390fd5b5060008385039050809150509392505050565b600033905090565b6000803090506000813b9050600081149250505090565b600073ffffffffffffffffffffffffffffffffffffffff168173ffffffffffffffffffffffffffffffffffffffff1614156114c7576040517f08c379a00000000000000000000000000000000000000000000000000000000081526004016114be90611d06565b60405180910390fd5b8073ffffffffffffffffffffffffffffffffffffffff16603360009054906101000a900473ffffffffffffffffffffffffffffffffffffffff1673ffffffffffffffffffffffffffffffffffffffff167f8be0079c531659141344cd1fd0a4f28419497f9722a3daafe3b4186f6b6457e060405160405180910390a380603360006101000a81548173ffffffffffffffffffffffffffffffffffffffff021916908373ffffffffffffffffffffffffffffffffffffffff16021790555050565b600060646001430340606a546040516020016115a4929190611c31565b6040516020818303038152906040528051906020012060001c816115c457fe5b06905090565b600061160c83836040518060400160405280601881526020017f536166654d6174683a206d6f64756c6f206279207a65726f0000000000000000815250611614565b905092915050565b600080831415829061165c576040517f08c379a00000000000000000000000000000000000000000000000000000000081526004016116539190611ca8565b60405180910390fd5b5082848161166657fe5b0690509392505050565b60008135905061167f816120b8565b92915050565b600081359050611694816120cf565b92915050565b6000602082840312156116ac57600080fd5b60006116ba84828501611670565b91505092915050565b6000602082840312156116d557600080fd5b60006116e384828501611685565b91505092915050565b600080604083850312156116ff57600080fd5b600061170d85828601611685565b925050602061171e85828601611685565b9150509250929050565b61173181611f90565b82525050565b61174081611fa2565b82525050565b61175761175282611fae565b612093565b82525050565b61176681611fe2565b82525050565b61177581611ff4565b82525050565b61178481612006565b82525050565b61179381612018565b82525050565b6117a28161202a565b82525050565b6117b18161203c565b82525050565b6117c08161204e565b82525050565b60006117d182611f69565b6117db8185611f7f565b93506117eb818560208601612060565b6117f4816120a7565b840191505092915050565b600061180c600f83611f7f565b91507f576f6e204669727374205072697a6500000000000000000000000000000000006000830152602082019050919050565b600061184c602683611f7f565b91507f4f776e61626c653a206e6577206f776e657220697320746865207a65726f206160008301527f64647265737300000000000000000000000000000000000000000000000000006020830152604082019050919050565b60006118b2601b83611f7f565b91507f536166654d6174683a206164646974696f6e206f766572666c6f7700000000006000830152602082019050919050565b60006118f2600f83611f7f565b91507f576f6e204669667468205072697a6500000000000000000000000000000000006000830152602082019050919050565b6000611932603a83611f7f565b91507f416464726573733a20756e61626c6520746f2073656e642076616c75652c207260008301527f6563697069656e74206d617920686176652072657665727465640000000000006020830152604082019050919050565b6000611998601d83611f7f565b91507f416464726573733a20696e73756666696369656e742062616c616e63650000006000830152602082019050919050565b60006119d8601083611f7f565b91507f576f6e205365636f6e64205072697a65000000000000000000000000000000006000830152602082019050919050565b6000611a18600f83611f7f565b91507f576f6e205468697264205072697a6500000000000000000000000000000000006000830152602082019050919050565b6000611a58600f83611f7f565b91507f4e6f206d6f6e657920696e20706f7400000000000000000000000000000000006000830152602082019050919050565b6000611a98602083611f7f565b91507f4f776e61626c653a2063616c6c6572206973206e6f7420746865206f776e65726000830152602082019050919050565b6000611ad8602e83611f7f565b91507f436f6e747261637420696e7374616e63652068617320616c726561647920626560008301527f656e20696e697469616c697a65640000000000000000000000000000000000006020830152604082019050919050565b6000611b3e600083611f74565b9150600082019050919050565b6000611b58600783611f7f565b91507f4465706f736974000000000000000000000000000000000000000000000000006000830152602082019050919050565b6000611b98600f83611f7f565b91507f576f6e20466f727468205072697a6500000000000000000000000000000000006000830152602082019050919050565b6000611bd8600483611f7f565b91507f4c6f7365000000000000000000000000000000000000000000000000000000006000830152602082019050919050565b611c1481611fd8565b82525050565b611c2b611c2682611fd8565b61209d565b82525050565b6000611c3d8285611746565b602082019150611c4d8284611c1a565b6020820191508190509392505050565b6000611c6882611b31565b9150819050919050565b6000602082019050611c876000830184611728565b92915050565b6000602082019050611ca26000830184611737565b92915050565b60006020820190508181036000830152611cc281846117c6565b905092915050565b60006060820190508181036000830152611ce3816117ff565b9050611cf2602083018561175d565b611cff6040830184611c0b565b9392505050565b60006020820190508181036000830152611d1f8161183f565b9050919050565b60006020820190508181036000830152611d3f816118a5565b9050919050565b60006060820190508181036000830152611d5f816118e5565b9050611d6e60208301856117a8565b611d7b6040830184611c0b565b9392505050565b60006020820190508181036000830152611d9b81611925565b9050919050565b60006020820190508181036000830152611dbb8161198b565b9050919050565b60006060820190508181036000830152611ddb816119cb565b9050611dea602083018561177b565b611df76040830184611c0b565b9392505050565b60006060820190508181036000830152611e1781611a0b565b9050611e26602083018561178a565b611e336040830184611c0b565b9392505050565b60006020820190508181036000830152611e5381611a4b565b9050919050565b60006020820190508181036000830152611e7381611a8b565b9050919050565b60006020820190508181036000830152611e9381611acb565b9050919050565b60006060820190508181036000830152611eb381611b4b565b9050611ec2602083018561176c565b611ecf6040830184611c0b565b9392505050565b60006060820190508181036000830152611eef81611b8b565b9050611efe6020830185611799565b611f0b6040830184611c0b565b9392505050565b60006060820190508181036000830152611f2b81611bcb565b9050611f3a60208301856117b7565b611f476040830184611c0b565b9392505050565b6000602082019050611f636000830184611c0b565b92915050565b600081519050919050565b600081905092915050565b600082825260208201905092915050565b6000611f9b82611fb8565b9050919050565b60008115159050919050565b6000819050919050565b600073ffffffffffffffffffffffffffffffffffffffff82169050919050565b6000819050919050565b6000611fed82611fd8565b9050919050565b6000611fff82611fd8565b9050919050565b600061201182611fd8565b9050919050565b600061202382611fd8565b9050919050565b600061203582611fd8565b9050919050565b600061204782611fd8565b9050919050565b600061205982611fd8565b9050919050565b60005b8381101561207e578082015181840152602081019050612063565b8381111561208d576000848401525b50505050565b6000819050919050565b6000819050919050565b6000601f19601f8301169050919050565b6120c181611f90565b81146120cc57600080fd5b50565b6120d881611fd8565b81146120e357600080fd5b5056fea365627a7a723158204ac2360cbfa973fd27371b88bcdf300342ecd0fe082a3426727470ebb263e45c6c6578706572696d656e74616cf564736f6c63430005110040",
  "compiler": {
    "name": "solc",
    "version": "0.5.17+commit.d19bba13.Emscripten.clang",
    "optimizer": {
      "enabled": false,
      "runs": 200
    },
    "evmVersion": "petersburg"
  }
}